:020000040800F2
:1000000000280020510C0008610B0008670B000855
:100010006D0B0008730B0008790B0008000000004E
:100020000000000000000000000000007F0B00083E
:100030008B0B000800000000970B0008A30B0008C2
:10004000990C0008990C0008990C0008990C0008FC
:10005000990C0008990C0008990C0008990C0008EC
:10006000990C0008990C0008990C0008990C0008DC
:10007000990C0008990C0008990C0008990C0008CC
:10008000990C0008990C0008990C0008990C0008BC
:10009000990C0008990C0008990C0008990C0008AC
:1000A000990C0008990C0008990C0008990C00089C
:1000B000B10B0008990C000800000000990C000822
:1000C000990C00080000000000000000990C0008D6
:1000D00000000000990C0008C50B0008000000009B
:1000E000990C0008990C0008990C00080000000009
:1000F0000000000000000000000000000000000000
:0C01000000000000000000005FF808F1A3
:10010C0010B5054C237833B9044B13B10448AFF345
:10011C0000800123237010BD90000020000000001F
:10012C00C830000808B5034B1BB103490348AFF3B3
:10013C00008008BD0000000094000020C8300008BA
:10014C0080B582B000AF0346FB71FB793B4AD35CB0
:10015C0003F00103002B0CBF01230023DBB21A4672
:10016C000121374801F049F9FB79344AD35C5B082B
:10017C00DBB203F00103002B0CBF01230023DBB225
:10018C001A4602212E4801F038F9FB792B4AD35C30
:10019C009B08DBB203F00103002B0CBF01230023EF
:1001AC00DBB21A460421264801F027F9FB79234AD1
:1001BC00D35CDB08DBB203F00103002B0CBF012383
:1001CC000023DBB21A4608211D4801F016F9FB7911
:1001DC001A4AD35C1B09DBB203F00103002B0CBFE2
:1001EC0001230023DBB21A461021154801F005F952
:1001FC00FB79124AD35C5B09DBB203F00103002BE1
:10020C000CBF01230023DBB21A4620210C4801F05D
:10021C00F4F8FB79094AD35C9B09DBB203F00103C8
:10022C00002B0CBF01230023DBB21A4640210448EB
:10023C0001F0E3F800BF0837BD4680BD0000002088
:10024C00000C014080B500AF01224FF480610B48D7
:10025C0001F0D3F801224FF40061084801F0CDF809
:10026C0001224FF48051054801F0C7F801224FF4E8
:10027C000051024801F0C1F800BF80BD00080140E8
:10028C0080B582B000AF0346FB710B46BB711346C1
:10029C007B71FFF7D7FFFB79032B55D801A252F8DE
:1002AC0023F000BFC1020008E10200080B030008A4
:1002BC002B030008BB79264AA2FB0323DB08DBB225
:1002CC001846FFF73DFF00224FF48061214801F0F2
:1002DC0094F839E0BA791E4BA3FB0213D9080B46EC
:1002EC009B000B445B00D31ADBB21846FFF728FFC8
:1002FC0000224FF40061174801F07FF824E07B796D
:10030C00134AA2FB0323DB08DBB21846FFF718FFE6
:10031C0000224FF480510F4801F06FF814E07A7905
:10032C000B4BA3FB0213D9080B469B000B445B0041
:10033C00D31ADBB21846FFF703FF00224FF400512B
:10034C00044801F05AF800BF00BF0837BD4680BD15
:10035C00CDCCCCCC0008014090B587B000AF3C466A
:10036C0084E80F00142002F097FD03467B613A6885
:10037C007B691A60BA887B699A80FA887B69DA8013
:10038C003A7A7B691A72FA687B69DA607B690022B7
:10039C001A617B6918461C37BD4690BD84B080B588
:1003AC0084B000AF786007F11C0080E80E0007F104
:1003BC001C030FCBFFF7D0FFB8607B681B68002BCA
:1003CC0003D17B68BA681A6045E07B681B68FB60E8
:1003DC00BB689A88FB689B889A420ED2FB689A8805
:1003EC00BB689B88D31A9AB2FB689A80BB68FA6880
:1003FC001A617B68BA681A602DE0BB689A88FB6842
:10040C009B88D31A9AB2BB689A800AE0FB681B6976
:10041C00FB60BB689A88FB689B88D31A9AB2BB684E
:10042C009A80FB681B69002B06D0BB689A88FB6816
:10043C001B699B889A42E9D2FB681B69002B03D18C
:10044C00FB68BA681A6106E0FB681A69BB681A6136
:10045C00FB68BA681A611037BD46BDE8804004B02D
:10046C00704780B584B000AF78607B68002B0AD0F1
:10047C007B681B68FB60FB681A697B681A60F8680C
:10048C0002F012FD00E000BF1037BD4680BD000039
:10049C0080B483B000AF7860044A7B68012142F8D5
:1004AC00231000BF0C37BD4680BC7047E80000200D
:1004BC0080B582B000AF00237B6072E03D4A7B6860
:1004CC0052F823203C497B6841F823203B4A7B6847
:1004DC0052F8232037497B6841F82320384A7B683F
:1004EC0052F8232037497B6831F8133019461046EF
:1004FC0000F06CFF03461946304A7B6842F8231023
:10050C002C4A7B6852F823202C497B6851F8233005
:10051C009A4243D1274A7B6852F8232026497B68AC
:10052C0051F823309A4239D1234A7B6852F8232060
:10053C0025497B6851F823309A4217D01E4A7B68B4
:10054C0052F8232020497B6841F823201E4A7B68FF
:10055C0052F82330002B21D11C4A7B684FF4FA71DE
:10056C0042F823107868FFF793FF17E0174A7B686F
:10057C0052F823305A1E15497B6841F82320134A40
:10058C007B6852F82330002B08D1104A7B684FF45B
:10059C00FA7142F823107868FFF77AFF7B68013311
:1005AC007B607B68022B89DD00BF00BF0837BD462E
:1005BC0080BD00BFB8000020C4000020AC000020AB
:1005CC000C00002018000020D0000020DC000020CF
:1005DC0080B500AF654B1B78032B00F2A28001A203
:1005EC0052F823F0010600084B0600088B060008A1
:1005FC00DD06000800224FF400715D4800F0FDFE9E
:10060C00002210215A4800F0F8FE012220215848FF
:10061C0000F0F3FE01228021554800F0EEFE554B10
:10062C001B68002B76DC514B01221A70524B1B7845
:10063C001A46524B1B78D31A4E4A13606AE00022BA
:10064C0020214B4800F0D9FE01224021484800F0FF
:10065C00D4FE484B1B68002B03DD494B1B68002B59
:10066C005ADC424B02221A70434B1B781A46414B00
:10067C001A60424B1B781A46414B1A604CE0002220
:10068C0040213B4800F0B9FE00228021384800F0A0
:10069C00B4FE01224FF48071354800F0AEFE012209
:1006AC001021334800F0A9FE324B1B68002B03DDF0
:1006BC00334B1B68002B31DC2C4B03221A702E4B56
:1006CC001B781A462D4B1B78D31A2D4A136025E044
:1006DC0000224FF48071264800F08FFE01224FF467
:1006EC000071234800F089FE224B1B68002B03DDB0
:1006FC00234B1B68002B13DC1C4B00221A701F4B66
:10070C001B781A461B4B1A601B4B1B781A461C4B4A
:10071C001A6005E000BF04E000BF02E000BF00E08B
:10072C0000BF184B1B78134A1268D1B2144A1268D6
:10073C00D2B21846FFF7A4FD124B1B780133DAB284
:10074C00104B1A700F4B1B78032B0CD90D4B00223E
:10075C001A70084B1B68013B064A1360084B1B6858
:10076C00013B074A136000BF80BD00BFF4000020AE
:10077C0000080140F80000201E0000201F0000208F
:10078C00FC00002000010020B0B586B000AF00F0E6
:10079C007FFA00F031F800F0B7F800F069F80C4877
:1007AC0001F072FA192219210A4800F013F90A4BC8
:1007BC003C1D1D460FCD0FC42B682370391D4FF403
:1007CC007A731122054801F0F7FD00F049F9FCE7B6
:1007DC0004010020DD050008E03000084C01002079
:1007EC0080B582B000AF786000F01CF9FFF760FEB6
:1007FC0000BF0837BD4680BD80B590B000AF07F193
:10080C00180328220021184602F056FB3B1D00223B
:10081C001A605A609A60DA601A610223BB61012384
:10082C00BB621023FB6200237B6307F1180318469D
:10083C0000F0FCFD0346002B01D000F0C5F80F239F
:10084C007B600023BB600023FB6000233B61002323
:10085C007B613B1D0021184601F06AF80346002B12
:10086C0001D000F0B1F800BF4037BD4680BD00009C
:10087C0080B586B000AF07F1080300221A605A60F9
:10088C009A60DA603B4600221A605A601D4B4FF0AA
:10089C0080421A601B4B41F63F725A60194B002282
:1008AC009A60184B0922DA60164B00221A61154B1C
:1008BC0000229A61134801F097F90346002B01D0EE
:1008CC0000F082F84FF48053BB6007F1080319461F
:1008DC000C4801F02DFB0346002B01D000F074F8FE
:1008EC0000233B6000237B603B461946054801F022
:1008FC00F9FC0346002B01D000F066F800BF183756
:10090C00BD4680BD0401002080B586B000AF07F164
:10091C00080300221A605A609A60DA60274B9B69C0
:10092C00264A43F004039361244B9B6903F00403B0
:10093C007B607B68214B9B69204A43F008039361E1
:10094C001E4B9B6903F008033B603B68002243F697
:10095C00F0711B4800F051FD00227F21194800F076
:10096C004CFD0E23BB600023FB6001233B6107F1B0
:10097C0008031946124800F0ADFB43F6F073BB6058
:10098C000123FB6000233B6102237B6107F1080319
:10099C0019460B4800F09EFB7F23BB600123FB60D4
:1009AC0000233B6102237B6107F1080319460548CC
:1009BC0000F090FB00BF1837BD4680BD0010024010
:1009CC0000080140000C014080B400AF72B600BFBB
:1009DC00FEE7000080B588B002AF78600B467B80E4
:1009EC0013463B807B68BB607B88BB813B88FB816B
:1009FC0000233B74094B1B785A1CD1B2074A117067
:100A0C007B617B69009307F108030ECB0448FFF769
:100A1C00C5FC00BF1837BD4680BD00BF9401002047
:100A2C009801002080B400AF0C4B1B68002B10D039
:100A3C000A4B1B689B88002B04D1084B1B680122B6
:100A4C001A7207E0054B1B689A88013A92B29A8099
:100A5C0000E000BFBD4680BC704700BF980100207D
:100A6C0080B586B002AF174B1B68002B25D0154BF9
:100A7C001B681B7A012B21D1124B1B681B689847F2
:100A8C00104B1B68DB88BB800E4B1B68DB88FB8024
:100A9C0000233B720B4B1B681B683B60094B1B68AC
:100AAC00DB68FB600748FFF7DCFCFB6800933B4608
:100ABC000ECB0448FFF772FC00E000BF1037BD46B8
:100ACC0080BD00BF9801002080B483B000AF0E4BF6
:100ADC009B690D4A43F0010393610B4B9B6903F037
:100AEC0001037B607B68084BDB69074A43F080534A
:100AFC00D361054BDB6903F080533B603B6800BF5F
:100B0C000C37BD4680BC70470010024080B584B0E5
:100B1C0000AF78607B681B68B3F1804F13D10C4B2E
:100B2C00DB690B4A43F00103D361094BDB6903F02A
:100B3C000103FB60FB68002200211C2000F0E1F99E
:100B4C001C2000F0FAF900BF1037BD4680BD00BF75
:100B5C000010024080B400AFFEE780B400AFFEE7A7
:100B6C0080B400AFFEE780B400AFFEE780B400AF06
:100B7C00FEE780B400AF00BFBD4680BC704780B4B8
:100B8C0000AF00BFBD4680BC704780B400AF00BF53
:100B9C00BD4680BC704780B500AF00F0BFF800BF09
:100BAC0080BD000080B500AF024801F0B9F800BF6D
:100BBC0080BD00BF0401002080B500AF024801F0E9
:100BCC007FFC00BF80BD00BF4C01002080B586B00B
:100BDC0000AF7860144A154BD31A7B617B693B617B
:100BEC00134B1B68002B02D1114B124A1A60104B8D
:100BFC001A687B6813443A699A4207D202F022F9C8
:100C0C0003460C221A604FF0FF3309E0084B1B68B7
:100C1C00FB60074B1A687B681344054A1360FB683A
:100C2C0018461837BD4680BD00280020000400007F
:100C3C009C010020B801002080B400AF00BFBD466D
:100C4C0080BC7047FFF7F8FF0B480C490C4A002397
:100C5C0002E0D458C4500433C4188C42F9D3094A66
:100C6C00094C002301E013600432A242FBD302F0D2
:100C7C00EFF8FFF789FD704700000020900000207E
:100C8C002031000890000020B4010020FEE7000095
:100C9C0080B500AF084B1B68074A43F01003136084
:100CAC00032000F023F90F2000F008F8FFF70CFFE9
:100CBC000023184680BD00BF0020024080B582B0E2
:100CCC0000AF7860124B1A68124B1B7819464FF420
:100CDC007A73B3FBF1F3B2FBF3F3184600F03BF974
:100CEC000346002B01D001230EE07B680F2B0AD8A2
:100CFC00002279684FF0FF3000F003F9064A7B6858
:100D0C001360002300E0012318460837BD4680BD60
:100D1C0020000020280000202400002080B400AF18
:100D2C00054B1B781A46054B1B681344034A13608A
:100D3C0000BFBD4680BC704728000020A0010020E9
:100D4C0080B400AF024B1B681846BD4680BC704790
:100D5C00A001002080B485B000AF78607B6803F000
:100D6C000703FB600C4BDB68BB60BA684FF6FF03F4
:100D7C001340BB60FB681A02BB68134343F0BF63AC
:100D8C0043F40033BB60044ABB68D36000BF143724
:100D9C00BD4680BC704700BF00ED00E080B400AFE2
:100DAC00044BDB681B0A03F007031846BD4680BCE6
:100DBC00704700BF00ED00E080B483B000AF034685
:100DCC00FB7197F90730002B0BDBFB7903F01F024B
:100DDC00064997F907305B09012000FA02F241F845
:100DEC00232000BF0C37BD4680BC704700E100E0FB
:100DFC0080B483B000AF03463960FB7197F90730BC
:100E0C00002B0ADB3B68DAB20C4997F90730120168
:100E1C00D2B20B4483F800230AE03B68DAB20849EB
:100E2C00FB7903F00F03043B1201D2B20B441A7688
:100E3C0000BF0C37BD4680BC704700BF00E100E02E
:100E4C0000ED00E080B489B000AFF860B9607A6062
:100E5C00FB6803F00703FB61FB69C3F10703042B79
:100E6C0028BF0423BB61FB690433062B02D9FB6941
:100E7C00033B00E000237B614FF0FF32BB6902FAB9
:100E8C0003F3DA43BB681A407B699A404FF0FF3199
:100E9C007B6901FA03F3D9437B680B401343184673
:100EAC002437BD4680BC704780B582B000AF7860F7
:100EBC007B68013BB3F1807F01D301230FE00A4A29
:100ECC007B68013B53600F214FF0FF30FFF790FF21
:100EDC00054B00229A60044B07221A600023184627
:100EEC000837BD4680BD00BF10E000E080B582B081
:100EFC0000AF78607868FFF72DFF00BF0837BD465C
:100F0C0080BD80B586B000AF0346B9607A60FB73D4
:100F1C0000237B61FFF742FF78617A68B9687869D2
:100F2C00FFF790FF024697F90F3011461846FFF76E
:100F3C005FFF00BF1837BD4680BD80B582B000AFE3
:100F4C000346FB7197F907301846FFF735FF00BFD2
:100F5C000837BD4680BD80B582B000AF7860786838
:100F6C00FFF7A2FF034618460837BD4680BD80B484
:100F7C0085B000AF78600023FB737B6893F8213059
:100F8C00DBB2022B08D07B6804229A637B680022B8
:100F9C0083F82020012320E07B681B681A687B689B
:100FAC001B6822F00E021A607B681B681A687B684B
:100FBC001B6822F001021A607B681A6C7B68DB6B81
:100FCC00012101FA02F25A607B68012283F8212088
:100FDC007B68002283F82020FB7B18461437BD4623
:100FEC0080BC704780B584B000AF78600023FB7381
:100FFC007B6893F82130DBB2022B05D07B6804228E
:10100C009A630123FB7351E07B681B681A687B6849
:10101C001B6822F00E021A607B681B681A687B68DA
:10102C001B6822F001021A607B681B68224A9342FB
:10103C0029D07B681B68214A934222D07B681B68AD
:10104C001F4A93421AD07B681B681E4A934212D0E7
:10105C007B681B681C4A93420AD07B681B681B4A3E
:10106C00934202D14FF480130EE04FF080730BE0EB
:10107C004FF4803308E04FF4805305E04FF4807355
:10108C0002E0102300E00123114A53607B68012227
:10109C0083F821207B68002283F820207B685B6B1F
:1010AC00002B03D07B685B6B78689847FB7B1846FA
:1010BC001037BD4680BD00BF080002401C00024036
:1010CC003000024044000240580002406C000240D4
:1010DC000000024080B48BB000AF78603960002310
:1010EC007B6200233B6261E101227B6A02FA03F31B
:1010FC00FB613B681B68FA691340BB61BA69FB6909
:10110C009A4240F050813B685B68974A93425ED0AC
:10111C00954A934275D8954A934258D0934A934234
:10112C006FD8934A934252D0914A934269D8914ACC
:10113C0093424CD08F4A934263D88F4A934246D005
:10114C008D4A93425DD8122B2AD8122B59D801A262
:10115C0052F823F0DB110008B5110008C711000884
:10116C00091200080F1200080F1200080F120008D5
:10117C000F1200080F1200080F1200080F120008BF
:10118C000F1200080F1200080F1200080F120008AF
:10119C000F1200080F120008BD110008D111000831
:1011AC00764A934213D02CE03B68DB683B6229E023
:1011BC003B68DB6804333B6224E03B68DB68083344
:1011CC003B621FE03B68DB680C333B621AE03B6818
:1011DC009B68002B02D104233B6213E03B689B68A5
:1011EC00012B05D108233B627B68FA691A6109E07F
:1011FC0008233B627B68FA695A6103E000233B6277
:10120C0000E000BFBB69FF2B01D87B6801E07B6865
:10121C0004337B61BB69FF2B02D87B6A9B0002E025
:10122C007B6A083B9B003B617B691A680F213B6919
:10123C0001FA03F3DB431A40396A3B6901FA03F301
:10124C001A437B691A603B685B6803F08053002B80
:10125C0000F0A9804A4B9B69494A43F00103936112
:10126C00474B9B6903F00103BB60BB68454A7B6A33
:10127C009B08023352F82330FB607B6A03F00303B4
:10128C009B000F2202FA03F3DB43FA681340FB6066
:10129C007B683D4A93420DD07B683C4A934207D011
:1012AC007B683B4A934201D1022304E0032302E012
:1012BC00012300E000237A6A02F0030292009340BB
:1012CC00FA681343FB602F497B6A9B080233FA6868
:1012DC0041F823203B685B6803F48013002B06D095
:1012EC002C4B9A682B49BB6913438B6006E0294B46
:1012FC009A68BB69DB43274913408B603B685B688A
:10130C0003F40013002B06D0224BDA682149BB6989
:10131C001343CB6006E01F4BDA68BB69DB431D4906
:10132C001340CB603B685B6803F40033002B06D0A2
:10133C00184B5A681749BB6913434B6006E0154BB1
:10134C005A68BB69DB43134913404B603B685B68CD
:10135C0003F48033002B1FD00E4B1A680D49BB6968
:10136C0013430B601FE000BF00003210000031106F
:10137C0000002210000021100000121000001110BB
:10138C00001002400000014000080140000C014028
:10139C0000100140000401400B4B1A68BB69DB4391
:1013AC00094913400B607B6A01337B623B681A6806
:1013BC007B6A22FA03F3002B7FF496AE00BF00BFCA
:1013CC002C37BD4680BC70470004014080B485B00A
:1013DC0000AF78600B467B807B689A687B881340F3
:1013EC00002B02D00123FB7301E00023FB73FB7B7A
:1013FC0018461437BD4680BC704780B483B000AF2C
:10140C0078600B467B8013467B707B78002B03D077
:10141C007A887B681A6103E07B881A047B681A61FE
:10142C0000BF0C37BD4680BC7047000080B586B04D
:10143C0000AF78607B68002B01D1012372E27B68DE
:10144C001B6803F00103002B00F08780924B5B6854
:10145C0003F00C03042B0CD08F4B5B6803F00C03D4
:10146C00082B12D18C4B5B6803F48033B3F5803FAF
:10147C000BD1894B1B6803F40033002B6CD07B68B9
:10148C005B68002B68D101234CE27B685B68B3F589
:10149C00803F06D1804B1B687F4A43F48033136036
:1014AC002EE07B685B68002B0CD17B4B1B687A4A67
:1014BC0023F480331360784B1B68774A23F4802322
:1014CC0013601DE07B685B68B3F5A02F0CD1724BE9
:1014DC001B68714A43F4802313606F4B1B686E4A80
:1014EC0043F4803313600BE06B4B1B686A4A23F4A4
:1014FC0080331360684B1B68674A23F480231360A6
:10150C007B685B68002B13D0FFF71AFC386108E08E
:10151C00FFF716FC02463B69D31A642B01D903234F
:10152C0000E25D4B1B6803F40033002BF0D014E099
:10153C00FFF706FC386108E0FFF702FC02463B6946
:10154C00D31A642B01D90323ECE1534B1B6803F42E
:10155C000033002BF0D100E000BF7B681B6803F068
:10156C000203002B63D04C4B5B6803F00C03002B85
:10157C000BD0494B5B6803F00C03082B1CD1464B7A
:10158C005B6803F48033002B16D1434B1B6803F0CC
:10159C000203002B05D07B681B69012B01D00123B2
:1015AC00C0E13D4B1B6823F0F8027B685B69DB00F4
:1015BC00394913430B603AE07B681B69002B20D040
:1015CC00364B01221A60FFF7BBFB386108E0FFF7CE
:1015DC00B7FB02463B69D31A022B01D90323A1E1C5
:1015EC002D4B1B6803F00203002BF0D02A4B1B6819
:1015FC0023F0F8027B685B69DB00274913430B601F
:10160C0015E0264B00221A60FFF79AFB386108E0C0
:10161C00FFF796FB02463B69D31A022B01D9032331
:10162C0080E11D4B1B6803F00203002BF0D17B689B
:10163C001B6803F00803002B3AD07B689B69002BD6
:10164C0019D0174B01221A60FFF77AFB386108E0BA
:10165C00FFF776FB02463B69D31A022B01D9032311
:10166C0060E10D4B5B6A03F00203002BF0D001200C
:10167C0000F09CFA1CE00A4B00221A60FFF760FB9A
:10168C0038610FE0FFF75CFB02463B69D31A022B73
:10169C0008D9032346E100BF00100240000042427B
:1016AC0080044242924B5B6A03F00203002BE9D1A7
:1016BC007B681B6803F00403002B00F0A68000235A
:1016CC00FB758B4BDB6903F08053002B0DD1884BE2
:1016DC00DB69874A43F08053D361854BDB6903F0A8
:1016EC008053BB60BB680123FB75824B1B6803F402
:1016FC008073002B18D17F4B1B687E4A43F4807398
:10170C001360FFF71DFB386108E0FFF719FB024679
:10171C003B69D31A642B01D9032303E1754B1B6876
:10172C0003F48073002BF0D07B68DB68012B06D1AF
:10173C006F4B1B6A6E4A43F0010313622DE07B680A
:10174C00DB68002B0CD16A4B1B6A694A23F001033E
:10175C001362674B1B6A664A23F0040313621CE096
:10176C007B68DB68052B0CD1614B1B6A604A43F02C
:10177C00040313625E4B1B6A5D4A43F00103136260
:10178C000BE05B4B1B6A5A4A23F001031362584B64
:10179C001B6A574A23F0040313627B68DB68002B37
:1017AC0015D0FFF7CDFA38610AE0FFF7C9FA024607
:1017BC003B69D31A41F28832934201D90323B1E039
:1017CC004B4B1B6A03F00203002BEED014E0FFF727
:1017DC00B7FA38610AE0FFF7B3FA02463B69D31A4D
:1017EC0041F28832934201D903239BE0404B1B6AA0
:1017FC0003F00203002BEED1FB7D012B05D13C4BFA
:10180C00DB693B4A23F08053D3617B68DB69002B97
:10181C0000F08780364B5B6803F00C03082B61D01B
:10182C007B68DB69022B46D1334B00221A60FFF731
:10183C0087FA386108E0FFF783FA02463B69D31A4E
:10184C00022B01D903236DE0294B1B6803F00073B5
:10185C00002BF0D17B681B6AB3F5803F08D1244B79
:10186C005B6823F400327B689B68214913434B600F
:10187C001F4B5B6823F474127B68196A7B685B6A84
:10188C000B431B4913434B601B4B01221A60FFF7A0
:10189C0057FA386108E0FFF753FA02463B69D31A4E
:1018AC00022B01D903233DE0114B1B6803F000739D
:1018BC00002BF0D035E0104B00221A60FFF740FAF5
:1018CC00386108E0FFF73CFA02463B69D31A022B59
:1018DC0001D9032326E0064B1B6803F00073002B91
:1018EC00F0D11EE07B68DB69012B07D1012319E0E5
:1018FC000010024000700040600042420B4B5B68DD
:10190C00FB60FB6803F480327B681B6A9A4206D149
:10191C00FB6803F470127B685B6A9A4201D0012366
:10192C0000E0002318461837BD4680BD0010024069
:10193C0080B584B000AF786039607B68002B01D132
:10194C000123D0E06A4B1B6803F007033A689A4204
:10195C0010D9674B1B6823F0070265493B6813439A
:10196C000B60634B1B6803F007033A689A4201D083
:10197C000123B8E07B681B6803F00203002B20D026
:10198C007B681B6803F00403002B05D0594B5B6884
:10199C00584A43F4E06353607B681B6803F0080308
:1019AC00002B05D0534B5B68524A43F46053536091
:1019BC00504B5B6823F0F0027B689B684D491343E6
:1019CC004B607B681B6803F00103002B40D07B68E5
:1019DC005B68012B07D1474B1B6803F40033002BCA
:1019EC0015D101237FE07B685B68022B07D1414B4B
:1019FC001B6803F00073002B09D1012373E03D4BEE
:101A0C001B6803F00203002B01D101236BE0394B5F
:101A1C005B6823F003027B685B68364913434B60B9
:101A2C00FFF78EF9F8600AE0FFF78AF90246FB68C7
:101A3C00D31A41F28832934201D9032353E02D4B40
:101A4C005B6803F00C027B685B689B009A42EBD1ED
:101A5C00274B1B6803F007033A689A4210D2244BB9
:101A6C001B6823F0070222493B6813430B60204B91
:101A7C001B6803F007033A689A4201D0012332E055
:101A8C007B681B6803F00403002B08D0194B5B68C0
:101A9C0023F4E0627B68DB68164913434B607B6878
:101AAC001B6803F00803002B09D0124B5B6823F46E
:101ABC0060527B681B69DB000E4913434B6000F0DE
:101ACC0021F802460B4B5B681B0903F00F030A4914
:101ADC00CB5C22FA03F3094A1360094B1B681846C6
:101AEC00FFF7ECF8002318461037BD4680BD00BF49
:101AFC000020024000100240F430000820000020BA
:101B0C002400002080B487B000AF0023FB600023CA
:101B1C00BB6000237B6100237B6000233B611E4B79
:101B2C005B68FB60FB6803F00C03042B02D0082BF2
:101B3C0003D027E0194B3B6127E0FB689B0C03F0BB
:101B4C000F03174AD35C7B60FB6803F48033002BD4
:101B5C0010D0114B5B685B0C03F00103114AD35C92
:101B6C00BB607B680D4A03FB02F2BB68B2FBF3F36C
:101B7C007B6104E07B680C4A02FB03F37B617B69AD
:101B8C003B6102E0054B3B6100BF3B6918461C37CB
:101B9C00BD4680BC704700BF0010024000127A00A6
:101BAC00043100081431000800093D0080B485B0F0
:101BBC0000AF78600A4B1B680A4AA2FB03235B0A3E
:101BCC007A6802FB03F3FB6000BFFB685A1EFA60E5
:101BDC00002BF9D100BF00BF1437BD4680BC704745
:101BEC0020000020D34D621080B582B000AF786029
:101BFC007B68002B01D1012341E07B6893F83D30D9
:101C0C00DBB2002B06D17B68002283F83C2078687D
:101C1C00FEF77CFF7B68022283F83D207B681A6804
:101C2C007B6804331946104600F06EFA7B6801227B
:101C3C0083F846207B68012283F83E207B680122D2
:101C4C0083F83F207B68012283F840207B680122C7
:101C5C0083F841207B68012283F842207B680122B3
:101C6C0083F843207B68012283F844207B6801229F
:101C7C0083F845207B68012283F83D200023184619
:101C8C000837BD4680BD000080B485B000AF7860D9
:101C9C007B6893F83D30DBB2012B01D0012335E09A
:101CAC007B68022283F83D207B681B68DA687B68BE
:101CBC001B6842F00102DA607B681B68164A93428B
:101CCC0009D07B681B68B3F1804F04D07B681B681C
:101CDC00124A934211D17B681B689B6803F007037F
:101CEC00FB60FB68062B10D07B681B681A687B684E
:101CFC001B6842F001021A6007E07B681B681A68D7
:101D0C007B681B6842F001021A60002318461437E6
:101D1C00BD4680BC704700BF002C01400004004051
:101D2C0080B582B000AF78607B681B681B6903F0DC
:101D3C000203022B22D17B681B68DB6803F00203D1
:101D4C00022B1BD17B681B686FF002021A617B6847
:101D5C0001221A777B681B689B6903F00303002B35
:101D6C0003D0786800F0B4F905E0786800F0A7F9C2
:101D7C00786800F0B6F97B6800221A777B681B68DC
:101D8C001B6903F00403042B22D17B681B68DB68FE
:101D9C0003F00403042B1BD17B681B686FF0040257
:101DAC001A617B6802221A777B681B689B6903F4B3
:101DBC004073002B03D0786800F08AF905E078684E
:101DCC0000F07DF9786800F08CF97B6800221A77B6
:101DDC007B681B681B6903F00803082B22D17B6806
:101DEC001B68DB6803F00803082B1BD17B681B689E
:101DFC006FF008021A617B6804221A777B681B68F3
:101E0C00DB6903F00303002B03D0786800F060F962
:101E1C0005E0786800F053F9786800F062F97B68A7
:101E2C0000221A777B681B681B6903F01003102BC8
:101E3C0022D17B681B68DB6803F01003102B1BD1CD
:101E4C007B681B686FF010021A617B6808221A7796
:101E5C007B681B68DB6903F44073002B03D0786844
:101E6C0000F036F905E0786800F029F9786800F0A0
:101E7C0038F97B6800221A777B681B681B6903F0B2
:101E8C000103012B0ED17B681B68DB6803F0010397
:101E9C00012B07D17B681B686FF001021A6178680F
:101EAC00FEF79EFC7B681B681B6903F08003802B8C
:101EBC000ED17B681B68DB6803F08003802B07D195
:101ECC007B681B686FF080021A61786800F06BFA0F
:101EDC007B681B681B6903F04003402B0ED17B68A9
:101EEC001B68DB6803F04003402B07D17B681B6841
:101EFC006FF040021A61786800F0FCF87B681B6890
:101F0C001B6903F02003202B0ED17B681B68DB6858
:101F1C0003F02003202B07D17B681B686FF0200295
:101F2C001A61786800F036FA00BF0837BD4680BDEC
:101F3C0080B584B000AF786039600023FB737B6898
:101F4C0093F83C30012B01D10223B4E07B680122D1
:101F5C0083F83C207B68022283F83D207B681B6859
:101F6C009B68BB60BB6823F07703BB60BB6823F442
:101F7C007F43BB607B681B68BA689A603B681B68D0
:101F8C00B3F5005F3ED0B3F5005F00F28780B3F588
:101F9C00805F00F08680B3F5805F7FD8702B1AD0FD
:101FAC00702B7BD8602B50D0602B77D8502B3CD02B
:101FBC00502B73D8402B58D0402B6FD8302B64D07B
:101FCC00302B6BD8202B60D0202B67D8002B5CD00B
:101FDC00102B5AD062E07B6818683B6899683B68A4
:101FEC005A683B68DB6800F05EF97B681B689B688D
:101FFC00BB60BB6843F07703BB607B681B68BA6847
:10200C009A604FE07B6818683B6899683B685A682F
:10201C003B68DB6800F047F97B681B689A687B6853
:10202C001B6842F480429A603CE07B6818683B680D
:10203C0059683B68DB681A4600F0BEF87B681B6881
:10204C005021184600F015F92CE07B6818683B68A5
:10205C0059683B68DB681A4600F0DCF87B681B6843
:10206C006021184600F005F91CE07B6818683B6895
:10207C0059683B68DB681A4600F09EF87B681B6861
:10208C004021184600F0F5F80CE07B681A683B68B4
:10209C001B681946104600F0ECF803E00123FB73B3
:1020AC0000E000BF7B68012283F83D207B680022A2
:1020BC0083F83C20FB7B18461037BD4680BD80B4AE
:1020CC0083B000AF786000BF0C37BD4680BC704752
:1020DC0080B483B000AF786000BF0C37BD4680BCC5
:1020EC00704780B483B000AF786000BF0C37BD463A
:1020FC0080BC704780B483B000AF786000BF0C37F1
:10210C00BD4680BC7047000080B485B000AF7860DD
:10211C0039607B681B68FB607B68254A934207D05B
:10212C007B68B3F1804F03D07B68224A934208D17D
:10213C00FB6823F07003FB603B685B68FA68134331
:10214C00FB607B681A4A934207D07B68B3F1804FDF
:10215C0003D07B68174A934208D1FB6823F4407381
:10216C00FB603B68DB68FA681343FB60FB6823F099
:10217C0080023B685B691343FB607B68FA681A60FA
:10218C003B689A687B68DA623B681A687B689A627B
:10219C007B68074A934203D13B681A697B681A63D0
:1021AC007B6801225A6100BF1437BD4680BC704762
:1021BC00002C01400004004080B487B000AFF860F0
:1021CC00B9607A60FB681B6A7B61FB681B6A23F051
:1021DC000102FB681A62FB689B693B613B6923F057
:1021EC00F0033B617B681B013A6913433B617B69DC
:1021FC0023F00A037B617A69BB6813437B61FB683C
:10220C003A699A61FB687A691A6200BF1C37BD464D
:10221C0080BC704780B487B000AFF860B9607A605A
:10222C00FB681B6A7B61FB681B6A23F01002FB686E
:10223C001A62FB689B693B613B6923F470433B6109
:10224C007B681B033A6913433B617B6923F0A00352
:10225C007B61BB681B017A6913437B61FB683A693C
:10226C009A61FB687A691A6200BF1C37BD4680BC54
:10227C00704780B485B000AF786039607B689B682C
:10228C00FB60FB6823F07003FB603A68FB68134348
:10229C0043F00703FB607B68FA689A6000BF143751
:1022AC00BD4680BC704780B487B000AFF860B960A1
:1022BC007A603B60FB689B687B617B6923F47F439E
:1022CC007B613B681A027B681A43BB6813437A69CB
:1022DC0013437B61FB687A699A6000BF1C37BD466B
:1022EC0080BC704780B485B000AF786039607B6883
:1022FC0093F83C30012B01D1022341E07B68012291
:10230C0083F83C207B68022283F83D207B681B68A5
:10231C005B68FB607B681B689B68BB60FB6823F099
:10232C007003FB603B681B68FA681343FB607B68B7
:10233C001B68FA685A607B681B68144A934209D080
:10234C007B681B68B3F1804F04D07B681B68104A14
:10235C0093420CD1BB6823F08003BB603B685B6885
:10236C00BA681343BB607B681B68BA689A607B6869
:10237C00012283F83D207B68002283F83C20002357
:10238C0018461437BD4680BC704700BF002C014076
:10239C000004004080B483B000AF786000BF0C37FD
:1023AC00BD4680BC704780B483B000AF786000BF7E
:1023BC000C37BD4680BC704780B58AB002AFF86060
:1023CC00B9603B601346FB8000237B61FB6893F88C
:1023DC004130DBB2202B6DD1BB68002B02D0FB88C7
:1023EC00002B01D1012366E0FB6800225A64FB68D4
:1023FC00212283F84120FEF7A3FC7861FB68FA8860
:10240C009A84FB68FA88DA84FB689B68B3F5805F72
:10241C0008D1FB681B69002B04D10023FB61BB684E
:10242C00BB6103E0BB68FB610023BB612AE03B6836
:10243C0000937B6900228021F86800F0F9FA0346CA
:10244C00002B01D0032336E0FB69002B0BD1BB69B9
:10245C001B881A46FB681B68C2F308025A60BB69EA
:10246C000233BB6107E0FB691A78FB681B685A6092
:10247C00FB690133FB61FB68DB8C9BB2013B9AB2BD
:10248C00FB68DA84FB68DB8C9BB2002BCFD13B68FA
:10249C0000937B6900224021F86800F0C9FA0346DA
:1024AC00002B01D0032306E0FB68202283F8412097
:1024BC00002300E0022318462037BD4680BD0000F3
:1024CC0080B5BAB000AF78607B681B681B68C7F832
:1024DC00E4307B681B68DB68C7F8E0307B681B68FE
:1024EC005B69C7F8DC300023C7F8D8300023C7F885
:1024FC00D430D7F8E43003F00F03C7F8D830D7F84E
:10250C00D830002B0FD1D7F8E43003F02003002B88
:10251C0009D0D7F8E03003F02003002B03D0786803
:10252C0000F0D1FB5BE2D7F8D830002B00F0DE8056
:10253C00D7F8DC3003F00103002B06D1D7F8E030DC
:10254C0003F49073002B00F0D180D7F8E43003F043
:10255C000103002B0BD0D7F8E03003F48073002B71
:10256C0005D07B685B6C43F001027B685A64D7F83A
:10257C00E43003F00403002B0BD0D7F8DC3003F06D
:10258C000103002B05D07B685B6C43F002027B6877
:10259C005A64D7F8E43003F00203002B0BD0D7F8C1
:1025AC00DC3003F00103002B05D07B685B6C43F03F
:1025BC0004027B685A64D7F8E43003F00803002B5C
:1025CC0011D0D7F8E03003F02003002B05D1D7F859
:1025DC00DC3003F00103002B05D07B685B6C43F00F
:1025EC0008027B685A647B685B6C002B00F0F281FC
:1025FC00D7F8E43003F02003002B08D0D7F8E030F4
:10260C0003F02003002B02D0786800F05CFB7B68A1
:10261C001B685B6903F04003002B14BF01230023EC
:10262C00DBB2C7F8D4307B685B6C03F00803002B7B
:10263C0003D1D7F8D430002B4FD0786800F066FA6D
:10264C007B681B685B6903F04003002B41D07B68FF
:10265C001B681433C7F89C30D7F89C3053E8003F04
:10266C00C7F89830D7F8983023F04003C7F8D0302B
:10267C007B681B681433D7F8D020C7F8A820C7F89C
:10268C00A430D7F8A410D7F8A82041E80023C7F845
:10269C00A030D7F8A030002BD9D17B68DB6B002B96
:1026AC0013D07B68DB6B7E4A5A637B68DB6B184606
:1026BC00FEF798FC0346002B16D07B68DB6B5B6B3C
:1026CC007A68D26B104698470EE0786800F09CF957
:1026DC000AE0786800F098F906E0786800F094F960
:1026EC007B6800225A6475E100BF73E17B681B6B49
:1026FC00012B40F04F81D7F8E43003F01003002B8E
:10270C0000F04881D7F8E03003F01003002B00F004
:10271C0041810023BB607B681B681B68BB607B68C6
:10272C001B685B68BB60BB687B681B685B6903F0FC
:10273C004003002B00F0B6807B68DB6B1B685B688A
:10274C00A7F8BE30B7F8BE30002B00F045817B688F
:10275C009B8DB7F8BE209A4280F03E817B68B7F81B
:10276C00BE20DA857B68DB6B9B69202B00F08880B0
:10277C007B681B680C33C7F88830D7F8883053E86F
:10278C00003FC7F88430D7F8843023F48073C7F83F
:10279C00B8307B681B680C33D7F8B820C7F8942086
:1027AC00C7F89030D7F89010D7F8942041E8002360
:1027BC00C7F88C30D7F88C30002BD9D17B681B68CC
:1027CC0014337B677B6F53E8003F3B673B6F23F011
:1027DC000103C7F8B4307B681B681433D7F8B420F6
:1027EC00C7F88020FB67F96FD7F8802041E80023F9
:1027FC00BB67BB6F002BE1D17B681B6814333B6656
:10280C003B6E53E8003FFB65FB6D23F04003C7F8BC
:10281C00B0307B681B681433D7F8B020FA66BB66FF
:10282C00B96EFA6E41E800237B667B6E002BE3D118
:10283C007B68202283F842207B6800221A637B6825
:10284C001B680C33FB64FB6C53E8003FBB64BB6C34
:10285C0023F01003C7F8AC307B681B680C33D7F837
:10286C00AC20BA657B65796DBA6D41E800233B6598
:10287C003B6D002BE3D17B68DB6B1846FEF777FBD7
:10288C007B6802225A637B689A8D7B68DB8D9BB2D6
:10289C00D31A9BB21946786800F0BFF89CE000BFD1
:1028AC00DD2B00087B689A8D7B68DB8D9BB2D31A7D
:1028BC00A7F8CE307B68DB8D9BB2002B00F08E80AE
:1028CC00B7F8CE30002B00F089807B681B680C3386
:1028DC00BB63BB6B53E8003F7B637B6B23F4907350
:1028EC00C7F8C8307B681B680C33D7F8C8207A64EB
:1028FC003B64396C7A6C41E80023FB63FB6B002B67
:10290C00E3D17B681B6814337B627B6A53E8003F1E
:10291C003B623B6A23F00103C7F8C4307B681B6839
:10292C001433D7F8C4203A63FB62F96A3A6B41E876
:10293C000023BB62BB6A002BE3D17B68202283F8A7
:10294C0042207B6800221A637B681B680C333B6156
:10295C003B6953E8003FFB60FB6823F01003C7F8AA
:10296C00C0307B681B680C33D7F8C020FA61BB61A0
:10297C00B969FA6941E800237B617B69002BE3D1DB
:10298C007B6802225A63B7F8CE301946786800F09B
:10299C0044F823E0D7F8E43003F08003002B09D08F
:1029AC00D7F8E03003F08003002B03D0786800F0F8
:1029BC0023F914E0D7F8E43003F04003002B0ED0D9
:1029CC00D7F8E03003F04003002B08D0786800F013
:1029DC0062F904E000BF02E000BF00E000BFE8378E
:1029EC00BD4680BD80B483B000AF786000BF0C37AB
:1029FC00BD4680BC704780B483B000AF786000BF28
:102A0C000C37BD4680BC704780B483B000AF786093
:102A1C0000BF0C37BD4680BC704780B483B000AF9C
:102A2C0078600B467B8000BF0C37BD4680BC70477E
:102A3C0080B590B000AFF860B9603B601346FB7195
:102A4C0050E0BB6CB3F1FF3F4CD0BB6C002B07D0FC
:102A5C00FEF776F902463B68D31ABA6C9A4241D219
:102A6C00FB681B680C33BB62BB6A53E8003F7B629C
:102A7C007B6A23F4D073FB63FB681B680C33FA6B23
:102A8C007A633B63396B7A6B41E80023FB62FB6A28
:102A9C00002BE5D1FB681B6814337B617B6953E821
:102AAC00003F3B613B6923F00103BB63FB681B6880
:102ABC001433BA6B3A62FB61F9693A6A41E8002354
:102ACC00BB61BB69002BE5D1FB68202283F8412058
:102ADC00FB68202283F84220FB68002283F8402008
:102AEC0003230FE0FB681B681A68BB681340BA68C5
:102AFC009A420CBF01230023DBB21A46FB799A429F
:102B0C009FD0002318464037BD4680BD80B495B099
:102B1C0000AF78607B681B680C337B637B6B53E87E
:102B2C00003F3B633B6B23F49073FB647B681B6837
:102B3C000C33FA6C3A64FB63F96B3A6C41E8002392
:102B4C00BB63BB6B002BE5D17B681B6814333B620A
:102B5C003B6A53E8003FFB61FB6923F00103BB6454
:102B6C007B681B681433BA6CFA62BB62B96AFA6A86
:102B7C0041E800237B627B6A002BE5D17B681B6BF1
:102B8C00012B19D17B681B680C33FB60FB6853E885
:102B9C00003FBB60BB6823F010037B647B681B6841
:102BAC000C337A6CBA617B617969BA6941E80023AC
:102BBC003B613B69002BE5D17B68202283F84220E6
:102BCC007B6800221A6300BF5437BD4680BC704737
:102BDC0080B584B000AF78607B685B6AFB60FB6893
:102BEC000022DA85FB680022DA84F868FFF70CFF14
:102BFC0000BF1037BD4680BD80B485B000AF786093
:102C0C007B6893F84130DBB2212B3ED17B689B680B
:102C1C00B3F5805F14D17B681B69002B10D17B68E6
:102C2C001B6AFB60FB681B881A467B681B68C2F337
:102C3C0008025A607B681B6A9A1C7B681A6208E05F
:102C4C007B681B6A591C7A6811621A787B681B684E
:102C5C005A607B68DB8C9BB2013B9BB27A6819464D
:102C6C00D184002B0FD17B681B68DA687B681B68EA
:102C7C0022F08002DA607B681B68DA687B681B686C
:102C8C0042F04002DA60002300E0022318461437B9
:102C9C00BD4680BC704780B582B000AF78607B6861
:102CAC001B68DA687B681B6822F04002DA607B687C
:102CBC00202283F841207868FFF794FE0023184601
:102CCC000837BD4680BD80B58CB000AF78607B689E
:102CDC0093F84230DBB2222B40F0AE807B689B68CD
:102CEC00B3F5805F17D17B681B69002B13D10023D0
:102CFC00FB627B689B6ABB627B681B685B689BB2F0
:102D0C00C3F308039AB2BB6A1A807B689B6A9A1C4D
:102D1C007B689A6226E07B689B6AFB620023BB623D
:102D2C007B689B68B3F5805F07D07B689B68002B42
:102D3C000AD17B681B69002B06D17B681B685B681A
:102D4C00DAB2FB6A1A7008E07B681B685B68DBB25E
:102D5C0003F07F03DAB2FB6A1A707B689B6A5A1C19
:102D6C007B689A627B68DB8D9BB2013B9BB27A6875
:102D7C001946D185002B5DD17B681B68DA687B68AE
:102D8C001B6822F02002DA607B681B68DA687B68BB
:102D9C001B6822F48072DA607B681B685A697B6856
:102DAC001B6822F001025A617B68202283F84220C2
:102DBC007B6800225A637B681B6B012B35D17B68C7
:102DCC0000221A637B681B680C337B617B6953E8B8
:102DDC00003F3B613B6923F010037B627B681B68FF
:102DEC000C337A6A3A62FB61F9693A6A41E800236A
:102DFC00BB61BB69002BE5D17B681B681B6803F0CA
:102E0C001003102B0AD10023FB607B681B681B6826
:102E1C00FB607B681B685B68FB60FB687B689B8D59
:102E2C0019467868FFF7F9FD02E07868FFF7E3FDD3
:102E3C00002302E0002300E0022318463037BD4691
:102E4C0080BD0000014B1868704700BF2C000020AB
:102E5C0070B500260C4D0D4C641BA410A64209D174
:102E6C0000F02CF900260A4D0A4C641BA410A64253
:102E7C0005D170BD55F8043B98470136EEE755F87F
:102E8C00043B98470136F2E7183100081831000866
:102E9C00183100081C310008024B0146186800F07C
:102EAC007BB800BF2C000020024B0146186800F0D4
:102EBC000BB800BF2C00002003460244934200D103
:102ECC00704703F8011BF9E738B50546002940D0D7
:102EDC0051F8043C0C1F002BB8BFE41800F0E0F8CC
:102EEC001C4A136833B9636014602846BDE8384047
:102EFC0000F0DCB8A34208D9206821188B4201BF2E
:102F0C0019685B6809182160EDE71A465B680BB11C
:102F1C00A342FAD911685018A0420BD12068014481
:102F2C00501883421160E0D118685B68014411604D
:102F3C005360DAE702D90C232B60D6E720682118FE
:102F4C008B4201BF19685B6809182160636054608B
:102F5C00CBE738BDA401002070B50E4E0C4631688D
:102F6C00054611B900F08CF830602146284600F077
:102F7C0087F8431C0AD0C41C24F00304A04207D0D9
:102F8C00211A284600F07CF8013001D14FF0FF34B3
:102F9C00204670BDA80100202DE9F041CD1C25F084
:102FAC00030508350C2D38BF0C25002D074601DB19
:102FBC00A94205D90C2300263B603046BDE8F081C0
:102FCC002E4E00F06DF833681C4634BB294638464B
:102FDC00FFF7C2FF431C04464DD134682646002E31
:102FEC0040D123683146384604EB030800F048F81A
:102FFC0080453AD1216803356D1A25F00305083553
:10300C000C2D38BF0C2538462946FFF7A5FF01309B
:10301C002BD023682B4423600EE02268521B1ED455
:10302C000B2A16D96119A342256018BF5960636831
:10303C0008BF316062514B60384604F10B0600F05A
:10304C0035F826F00706231DF21AB6D09B1BA350A9
:10305C00B3E76268A3420CBF32605A60ECE72346C8
:10306C006468B2E734467668B9E70C2338463B60AF
:10307C0000F01CF8A1E72560DEE700BFA4010020EA
:10308C0038B50023054D044608462B60FDF79EFD20
:10309C00431C02D12B6803B1236038BDAC01002066
:1030AC00014800F009B800BFB0010020014800F051
:1030BC0004B800BFB001002070477047F8B500BFDE
:1030CC00F8BC08BC9E467047F8B500BFF8BC08BCFD
:0430DC009E46704755
:1030E00053746172742055534152542121200D0AAA
:1030F00000000000000000000000000001020304C6
:103100000607080902030405060708090A0B0C0D47
:083110000E0F10100102000077
:043118003101000879
:04311C000D01000899
:103120003F065B4F666D7D077F6F00000008014022
:1031300000080140000801400200040008000A08DD
:103140000024F40010000000010000003000002006
:10315000000000000000000000000000000000006F
:10316000000000000000000000000000000000005F
:10317000000000000000000000000000000000004F
:10318000000000000000000000000000000000003F
:10319000000000000000000000000000000000002F
:1031A000000000000000000000000000000000001F
:0400000508000C5192
:00000001FF
